module.exports = [
    {
        "tx": "02000000000101bef67e4e2fb9ddeeb3461973cd4c62abb35050b1add772995b820b584a488489000000000038b02b8002c0c62d0000000000160014ccf1af2f2aabee14bb40fa3851ab2301de84311054a56a00000000002200204adb4e2f00643db396dd120d4e7dc17625f5f2c11a40d857accc862d6b7dd80e0400473044022051b75c73198c6deee1a875871c3961832909acd297c6b908d59e3319e5185a46022055c419379c5051a78d00dbbce11b5b664a0c22815fbcc6fcef6b1937c383693901483045022100f51d2e566a70ba740fc5d8c0f07b9b93d2ed741c3c0860c613173de7d39e7968022041376d520e9c0e1ad52248ddf4b22e12be8763007df977253ef45a4ca3bdb7c001475221023da092f6980e58d2c037173180e9a465476026ee50f96695963e8efe436f54eb21030e9f7b623d2ccc7c9bd44d66d5ce21ce504c0acf6385a132cec6d3c39fa711c152ae3e195220",
        "version": {
            "html": "02000000",
            "title": "version=2 (little endian)"
        },
        "marker": {
            "html": "00",
            "title": "marker 00"
        },
        "flag": {
            "html": "01",
            "title": "flag 01"
        },
        "json": {
            "version": 2,
            "locktime": 542251326,
            "vin": [
                {
                    "txid": "8984484a580b825b9972d7adb15050b3ab624ccd731946b3eeddb92f4e7ef6be",
                    "vout": 0,
                    "scriptSig": {
                        "asm": "",
                        "hex": ""
                    },
                    "sequence": 2150346808,
                    "txinwitness": [
                        "",
                        "3044022051b75c73198c6deee1a875871c3961832909acd297c6b908d59e3319e5185a46022055c419379c5051a78d00dbbce11b5b664a0c22815fbcc6fcef6b1937c383693901",
                        "3045022100f51d2e566a70ba740fc5d8c0f07b9b93d2ed741c3c0860c613173de7d39e7968022041376d520e9c0e1ad52248ddf4b22e12be8763007df977253ef45a4ca3bdb7c001",
                        "5221023da092f6980e58d2c037173180e9a465476026ee50f96695963e8efe436f54eb21030e9f7b623d2ccc7c9bd44d66d5ce21ce504c0acf6385a132cec6d3c39fa711c152ae"
                    ]
                }
            ],
            "vout": [
                {
                    "value": 0.03,
                    "n": 0,
                    "scriptPubKey": {
                        "asm": "0 ccf1af2f2aabee14bb40fa3851ab2301de843110",
                        "hex": "0014ccf1af2f2aabee14bb40fa3851ab2301de843110"
                    }
                },
                {
                    "value": 0.0698914,
                    "n": 1,
                    "scriptPubKey": {
                        "asm": "0 4adb4e2f00643db396dd120d4e7dc17625f5f2c11a40d857accc862d6b7dd80e",
                        "hex": "00204adb4e2f00643db396dd120d4e7dc17625f5f2c11a40d857accc862d6b7dd80e"
                    }
                }
            ]
        }

    },
    {
        "tx": "0100000001b14bdcbc3e01bdaad36cc08e81e69c82e1060bc14e518db2b49aa43ad90ba26000000000490047304402203f16c6f40162ab686621ef3000b04e75418a0c0cb2d8aebeac894ae360ac1e780220ddc15ecdfc3507ac48e1681a33eb60996631bf6bf5bc0a0682c4db743ce7ca2b01ffffffff0140420f00000000001976a914660d4ef3a743e3e696ad990364e555c271ad504b88ac00000000",
        "version": {
            "html": "01000000",
            "title": "version=1 (little endian)"
        },
        "nin": {
            "html": "01",
            "title": "number of inputs = 1"
        },
        "json": {
            "version": 1,
            "locktime": 0,
            "vin": [
                {
                    "txid": "60a20bd93aa49ab4b28d514ec10b06e1829ce6818ec06cd3aabd013ebcdc4bb1",
                    "vout": 0,
                    "scriptSig": {
                        "asm": "0 304402203f16c6f40162ab686621ef3000b04e75418a0c0cb2d8aebeac894ae360ac1e780220ddc15ecdfc3507ac48e1681a33eb60996631bf6bf5bc0a0682c4db743ce7ca2b01",
                        "hex": "0047304402203f16c6f40162ab686621ef3000b04e75418a0c0cb2d8aebeac894ae360ac1e780220ddc15ecdfc3507ac48e1681a33eb60996631bf6bf5bc0a0682c4db743ce7ca2b01"
                    },
                    "sequence": 4294967295
                }
            ],
            "vout": [
                {
                    "value": 0.01,
                    "n": 0,
                    "scriptPubKey": {
                        "asm": "OP_DUP OP_HASH160 660d4ef3a743e3e696ad990364e555c271ad504b OP_EQUALVERIFY OP_CHECKSIG",
                        "hex": "76a914660d4ef3a743e3e696ad990364e555c271ad504b88ac"
                    }
                }
            ]
        },

    }
]